S01000004C4D33355F6164632E737265638C
S11300000C9434000C9449000C9449000C9449005D
S11300100C9449000C9449000C9449000C94490038
S11300200C9449000C9449000C9449000C94490028
S11300300C9449000C9449000C9449000C94490018
S11300400C9449000C9449000C9449000C94490008
S11300500C9449000C9449000C9449000C944900F8
S11300600C9449000C94490011241FBECFEFD8E032
S1130070DEBFCDBF11E0A0E0B1E0E0E7F7E002C0F1
S113008005900D92A031B107D9F70E94AF010C94ED
S1130090B6030C940000ECE7F0E08081806C808370
S11300A0EAE7F0E0808180688083808187608083D4
S11300B0089587709927ECE7F0E09081907F892B71
S11300C08083EAE7F0E0808180648083808180918E
S11300D0780090917900089585B1886085B985E0AC
S11300E08A95F1F7000085B1877F85B987EC90E0A8
S11300F00197F1F700C0000008959BB1937C9BB970
S113010083FF03C09BB194609BB982FF03C09BB182
S113011098609BB981FF03C09BB190619BB980FF3C
S113012003C08BB180628BB90E946C000895CF9399
S1130130C82F613021F485B1806185B903C085B1D0
S11301408F7E85B98C2F82958F700E947D008C2FB5
S11301508F700E947D00CF910895CF93C82F60E0E7
S11301600E949700C150C23030F48FE39FE10197A1
S1130170F1F700C00000CF91089561E00E9497005C
S11301800895882311F090E401C090E0862F8F70C9
S1130190890F80680E94AD000895CF93DF93EC012E
S11301A003C021960E94BD0088818111FACFDF919E
S11301B0CF91089581E00E94AD00089584B18061DB
S11301C084B984B1886084B98AB18C638AB92FEF09
S11301D089EF90E0215080409040E1F700C000009A
S11301E085B18F7E85B985B1877F85B983E00E940B
S11301F07D008FE19EE40197F1F700C0000083E0E9
S11302000E947D0087E592E00197F1F700C00000AD
S113021083E00E947D0087E592E00197F1F700C03A
S1130220000082E00E947D0087E592E00197F1F7EB
S113023000C0000088E20E94AD0088E00E94AD008A
S113024081E00E94AD0086E00E94AD008CE00E9437
S1130250AD000895CF93DF93EC018A30910568F0E7
S11302609C01ADECBCEC0E94A703969587959695EE
S11302708795969587950E942A019E01ADECBCEC6A
S11302800E94A70396958795969587959695879549
S11302909C01220F331F880F991F880F991F880F05
S11302A0991F820F931F9E01281B390BC901805D82
S11302B00E94BD00DF91CF9108958F929F92AF92DB
S11302C0BF92CF92DF92EF92FF924B015C0120E04C
S11302D030E0A9010E94540288233CF48DE20E947C
S11302E0BD00B7FAB094B7F8B094C501B4010E9448
S11302F059026B017C01CB010E942A018EE20E940B
S1130300BD00B60180E090E00E9488029B01AC0130
S1130310C501B4010E94E70120E030E048EC52E45A
S11303200E943A0320E030E040E05FE30E94E801ED
S11303300E9459026B017C018AE0C816D10418F4AA
S113034080E30E94BD00C6010E942A01FF90EF9045
S1130350DF90CF90BF90AF909F908F9008950E94B0
S11303604B000E94DE0080E090E00E945900BC0136
S113037080E090E00E94880223E23BED49EF5EE3D7
S11303800E943A036B017C010E94DA0060E080E085
S11303900E94C10080E091E00E94CD0060E081E015
S11303A00E94C100C701B6010E945D018FED0E9449
S11303B0BD008DE091E00E94CD002FEF89E698E129
S11303C0215080409040E1F700C00000CCCF50584D
S11303D0BB27AA270E94FF010C9400030E94F2028B
S11303E038F00E94F90220F039F49F3F19F426F402
S11303F00C94EF020EF4E095E7FB0C94E902E92F6C
S11304000E94110358F3BA1762077307840795070C
S113041020F079F4A6F50C9433030EF4E0950B2E3A
S1130420BA2FA02D0B01B90190010C01CA01A00142
S11304301124FF27591B99F0593F50F4503E68F19D
S11304401A16F040A22F232F342F4427585FF3CFDE
S1130450469537952795A795F0405395C9F77EF4AF
S11304601F16BA0B620B730B840BBAF09150A1F0F8
S1130470FF0FBB1F661F771F881FC2F70EC0BA0F7E
S1130480621F731F841F48F4879577956795B79506
S1130490F7959E3F08F0B0CF9395880F08F0992701
S11304A0EE0F9795879508950E94C50208F481E0A0
S11304B008950E94190388F09F5798F0B92F99273F
S11304C0B751B0F0E1F0660F771F881F991F1AF03B
S11304D0BA95C9F714C0B13091F00E943303B1E06A
S11304E008950C943303672F782F8827B85F39F069
S11304F0B93FCCF3869577956795B395D9F73EF4D4
S113050090958095709561957F4F8F4F9F4F08957B
S1130510E89409C097FB3EF4909580957095619599
S11305207F4F8F4F9F4F9923A9F0F92F96E9BB274F
S11305309395F695879577956795B795F111F8CFCB
S1130540FAF4BB0F11F460FF1BC06F5F7F4F8F4F36
S11305509F4F16C0882311F096E911C0772321F02C
S11305609EE8872F762F05C0662371F096E8862FC4
S113057070E060E02AF09A95660F771F881FDAF71B
S1130580880F9695879597F90895990F0008550F48
S1130590AA0BE0E8FEEF16161706E807F907C0F005
S11305A012161306E407F50798F0621B730B840B0D
S11305B0950B39F40A2661F0232B242B252B21F4E7
S11305C008950A2609F4A140A6958FEF811D811D87
S11305D0089597F99F6780E870E060E008959FEFC1
S11305E080EC089500240A941616170618060906C6
S11305F0089500240A941216130614060506089595
S1130600092E0394000C11F4882352F0BB0F40F41C
S1130610BF2B11F460FF04C06F5F7F4F8F4F9F4F5C
S1130620089557FD9058440F551F59F05F3F71F0DE
S11306304795880F97FB991F61F09F3F79F0879545
S11306400895121613061406551FF2CF4695F1DFCE
S113065008C0161617061806991FF1CF869571055E
S1130660610508940895E894BB2766277727CB0192
S113067097F908950E944D030C9400030E94F2021E
S113068038F00E94F90220F0952311F00C94E9024D
S11306900C94EF0211240C9434030E94110370F3A0
S11306A0959FC1F3950F50E0551F629FF001729F13
S11306B0BB27F00DB11D639FAA27F00DB11DAA1F22
S11306C0649F6627B00DA11D661F829F2227B00D6F
S11306D0A11D621F739FB00DA11D621F839FA00DFA
S11306E0611D221F749F3327A00D611D231F849F4A
S11306F0600D211D822F762F6A2F11249F575040A1
S11307009AF0F1F088234AF0EE0FFF1FBB1F661F1B
S1130710771F881F91505040A9F79E3F510580F0E4
S11307200C94E9020C9434035F3FE4F3983ED4F351
S1130730869577956795B795F795E7959F5FC1F788
S1130740FE2B880F911D9695879597F90895A29F82
S1130750B001B39FC001A39F700D811D1124911D91
S1130760B29F700D811D1124911D0895F894FFCF3F
S113077054656D70657261747572653A004300006A
S9030000FC
