S01800004C4D33355F74656D705F73656E736F722E73726563FD
S11300000C94B1000C94C6000C94C6000C94C60069
S11300100C94C6000C94C6000C94C6000C94C60044
S11300200C94C6000C94C6000C94C6000C94C60034
S11300300C94C6000C94C6000C94C6000C94C60024
S11300400C94C6000C94C6000C94C6000C94C60014
S11300500C94C6000C94C6000C94C6000C94C60004
S11300600C94C6000C94C60000407A10F35A00A009
S1130070724E18090010A5D4E80000E8764817006D
S113008000E40B54020000CA9A3B000000E1F505AD
S1130090000080969800000040420F000000A086F7
S11300A001000000102700000000E8030000000029
S11300B06400000000000A000000000001000000CD
S11300C000002C76D888DC674F0823DFC1DFAE59E7
S11300D0E1B1B796E5E3E453C63AE651997696E87A
S11300E0E6C28426EB898C9B62ED407C6FFCEFBCFE
S11300F09C9F40F2BAA56FA5F490055A2AF75C9329
S11301006B6CF9676DC11BFCE0E40D47FEF520E65E
S1130110B500D0ED902E0300943577050080841E41
S1130120080000204E0A000000C80C333333330F9C
S1130130986E12831141EF8D2114893BE65516CF39
S1130140FEE6DB18D1844B381BF77C1D901DA4BB45
S1130150E424203284725E228100C9F124ECA1E5FA
S11301603D2711241FBECFEFD8E0DEBFCDBF11E085
S1130170A0E0B1E0E2E6FEE002C005900D92A431F9
S1130180B107D9F70E947B020C942F070C9400004E
S1130190ECE7F0E0808180788083808180648083D4
S11301A0EAE7F0E0808180688083808187608083D3
S11301B0089587709927ECE7F0E09081907F892B70
S11301C08083EAE7F0E080818064808380917A0014
S11301D086FDFCCF8091780090917900089585B1D7
S11301E0886085B985E08A95F1F7000085B1877F3D
S11301F085B987EC90E00197F1F700C000000895FD
S11302009BB1937C9BB983FF03C09BB194609BB962
S113021082FF03C09BB198609BB981FF03C09BB16F
S113022090619BB980FF03C08BB180628BB90E943F
S1130230EF000895CF93C82F613021F485B1806118
S113024085B903C085B18F7E85B98C2F82958F7057
S11302500E9400018C2F8F700E940001CF9108959D
S1130260CF93C82F60E00E941A01C150C23030F40D
S11302708FE39FE10197F1F700C00000CF9108954B
S113028061E00E941A010895882311F090E401C0EE
S113029090E0862F8F70890F80680E943001089546
S11302A0CF93DF93EC0103C021960E944001888123
S11302B08111FACFDF91CF91089581E00E9430013E
S11302C0089584B1806184B984B1886084B98AB1A5
S11302D08C638AB92FEF89EF90E0215080409040E1
S11302E0E1F700C0000085B18F7E85B985B1877FB5
S11302F085B983E00E9400018FE19EE40197F1F744
S113030000C0000083E00E94000187E592E00197AD
S1130310F1F700C0000083E00E94000187E592E04D
S11303200197F1F700C0000082E00E94000187E518
S113033092E00197F1F700C0000088E20E943001CA
S113034088E00E94300181E00E94300186E00E9432
S113035030018CE00E9430010895CF93DF93EC01CB
S11303608A30910568F09C01ADECBCEC0E949704C6
S11303709695879596958795969587950E94AD0154
S11303809E01ADECBCEC0E949704969587959695DA
S11303908795969587959C01220F331F880F991F87
S11303A0880F991F880F991F820F931F9E01281B86
S11303B0390BC901805D0E944001DF91CF910895FE
S11303C08F929F92AF92BF92CF92DF92EF92FF9261
S11303D04B015C0120E030E0A9010E944403882322
S11303E03CF48DE20E944001B7FAB094B7F8B0949F
S11303F0C501B4010E9449036B017C01CB010E9439
S1130400AD018EE20E944001B60180E090E00E94BE
S113041078039B01AC01C501B4010E94D70220E01E
S113042030E048EC52E40E942A0420E030E040E04E
S11304305FE30E94D8020E9449036B017C018AE0B9
S1130440C816D10418F480E30E944001C6010E943A
S1130450AD01FF90EF90DF90CF90BF90AF909F9051
S11304608F90089516BC84B58C7F84BD85B5877F35
S113047085BD85B5897F85BD85B5816085BD20E055
S113048030E007C0A89BFECF85B3816085BB2F5F9A
S11304903F4F22318AE73807A8F308951092C50028
S11304A087E68093C400E1ECF0E08081886180837A
S11304B080818B7F8083E2ECF0E0808186608083A2
S11304C080818F7C80838081877F80830895909151
S11304D0C00095FFFCCF8093C6000895CF93DF93AF
S11304E0EC0103C021960E94670288818111FACF32
S11304F0DF91CF910895CF93DF93CDB7DEB72A97DD
S11305000FB6F894DEBF0FBECDBF84B1816084B94D
S11305100E94C8000E9461010E944E020E943202A1
S113052080E090E00E94D900BC0180E090E00E944D
S1130530780323E23BED49EF5EE30E942A046B015A
S11305407C010E945D0160E080E00E94440180E043
S113055091E00E94500160E081E00E944401C701E3
S1130560B6010E94E0018FED0E9440018EE091E00F
S11305700E9450010E9432028E010F5F1F4F21E042
S113058030E044E050E0C701B6010E94A604C8016F
S11305900E946E0280E191E00E946E020E9432028B
S11305A095B181E0892785B90E943202B9CF5058AC
S11305B0BB27AA270E94EF020C94F0030E94E203D7
S11305C038F00E94E90320F039F49F3F19F426F42F
S11305D00C94DF030EF4E095E7FB0C94D903E92FA8
S11305E00E94010458F3BA1762077307840795073A
S11305F020F079F4A6F50C9423040EF4E0950B2E68
S1130600BA2FA02D0B01B90190010C01CA01A00160
S11306101124FF27591B99F0593F50F4503E68F1BB
S11306201A16F040A22F232F342F4427585FF3CFFC
S1130630469537952795A795F0405395C9F77EF4CD
S11306401F16BA0B620B730B840BBAF09150A1F016
S1130650FF0FBB1F661F771F881FC2F70EC0BA0F9C
S1130660621F731F841F48F4879577956795B79524
S1130670F7959E3F08F0B0CF9395880F08F099271F
S1130680EE0F9795879508950E94B50308F481E0CD
S113069008950E94090488F09F5798F0B92F99276C
S11306A0B751B0F0E1F0660F771F881F991F1AF059
S11306B0BA95C9F714C0B13091F00E942304B1E097
S11306C008950C942304672F782F8827B85F39F096
S11306D0B93FCCF3869577956795B395D9F73EF4F2
S11306E090958095709561957F4F8F4F9F4F08959A
S11306F0E89409C097FB3EF49095809570956195B8
S11307007F4F8F4F9F4F9923A9F0F92F96E9BB276D
S11307109395F695879577956795B795F111F8CFE9
S1130720FAF4BB0F11F460FF1BC06F5F7F4F8F4F54
S11307309F4F16C0882311F096E911C0772321F04A
S11307409EE8872F762F05C0662371F096E8862FE2
S113075070E060E02AF09A95660F771F881FDAF739
S1130760880F9695879597F90895990F0008550F66
S1130770AA0BE0E8FEEF16161706E807F907C0F023
S113078012161306E407F50798F0621B730B840B2B
S1130790950B39F40A2661F0232B242B252B21F405
S11307A008950A2609F4A140A6958FEF811D811DA5
S11307B0089597F99F6780E870E060E008959FEFDF
S11307C080EC089500240A941616170618060906E4
S11307D0089500240A9412161306140605060895B3
S11307E0092E0394000C11F4882352F0BB0F40F43B
S11307F0BF2B11F460FF04C06F5F7F4F8F4F9F4F7B
S1130800089557FD9058440F551F59F05F3F71F0FC
S11308104795880F97FB991F61F09F3F79F0879563
S11308200895121613061406551FF2CF4695F1DFEC
S113083008C0161617061806991FF1CF869571057C
S1130840610508940895E894BB2766277727CB01B0
S113085097F908950E943D040C94F0030E94E2036A
S113086038F00E94E90320F0952311F00C94D90389
S11308700C94DF0311240C9424040E94010470F3EB
S1130880959FC1F3950F50E0551F629FF001729F31
S1130890BB27F00DB11D639FAA27F00DB11DAA1F40
S11308A0649F6627B00DA11D661F829F2227B00D8D
S11308B0A11D621F739FB00DA11D621F839FA00D18
S11308C0611D221F749F3327A00D611D231F849F68
S11308D0600D211D822F762F6A2F11249F575040BF
S11308E09AF0F1F088234AF0EE0FFF1FBB1F661F3A
S11308F0771F881F91505040A9F79E3F510580F003
S11309000C94D9030C9424045F3FE4F3983ED4F38D
S1130910869577956795B795F795E7959F5FC1F7A6
S1130920FE2B880F911D9695879597F90895A29FA0
S1130930B001B39FC001A39F700D811D1124911DAF
S1130940B29F700D811D1124911D0895EF920F9394
S11309501F93CF93DF93E80147FD02C034E001C049
S113096034E1042E000C550B57FF03C051954195FB
S11309705109E32E022F242FAE010E94C604CE019A
S1130980DF91CF911F910F91EF900895A9E0B0E00E
S1130990ECECF4E00C94FE066A01122FB02E2BE36B
S11309A0201720F0FF24F394F00E02C02CE3F22E63
S11309B00F2D27E0AE014F5F5F4F0E942006BC0160
S11309C04981842F8970813031F0E1FC06C0E0FE5A
S11309D006C090E205C09DE203C09BE201C090E026
S11309E05E2D507143FF3CC0911102C083E001C0F1
S11309F084E0811718F4212F281B01C020E0511135
S1130A000BC0F601822F30E2882319F03193815014
S1130A10FBCFC20ED11C20E0992329F0D6019C9370
S1130A20F60131966F01C6010396E2FE0AC03EE468
S1130A30D6013C9341E411964C93119712963C9342
S1130A4006C03EE6F601308341E641833283FC0171
S1130A50322F40E2332309F442C041933150FACF9C
S1130A6042FF44C0911102C083E001C084E08117B9
S1130A7018F4212F281B01C020E051110BC0F601EE
S1130A80822F30E2882319F031938150FBCFC20EBC
S1130A90D11C20E0992329F0D6019C93F6013196CC
S1130AA06F01C6010396E2FE0BC039E4D6013C9304
S1130AB03EE411963C93119736E412963C9307C09A
S1130AC039E6F60130833EE6318336E63283FC01B3
S1130AD0322F40E2332319F041933150FBCFFC0114
S1130AE0E20FF11D10828EEF9FEFA6C021E030E0EF
S1130AF0911102C020E030E0161617061CF4FB0129
S1130B00319602C0E1E0F0E02E0F3F1FBB2021F040
S1130B10EB2DF0E0319602C0E0E0F0E02E0F3F1F35
S1130B20E12FF0E02E173F071CF4121B212F01C008
S1130B3020E08E2D887159F4F601822F30E288234B
S1130B4019F031938150FBCFC20ED11C20E09923C0
S1130B5029F0D6019C93F60131966F0151110BC017
S1130B60F601822F90E3882319F091938150FBCFF3
S1130B70C20ED11C20E00F2D060F9A81342F307144
S1130B8044FF03C0913309F40150101624F40930D2
S1130B9018F008E001C001E0AB0177FF02C040E0BB
S1130BA050E0FB01E41BF50BA1E0B0E0AC0FBD1F6E
S1130BB0EA0FFB1F8EE2A82E4B01801A91080B2D21
S1130BC010E01195019511094F3FBFEF5B0721F428
S1130BD0D601AC9211966D01641775072CF084163A
S1130BE0950614F4818101C080E341505109319686
S1130BF0D60111967D014017510724F0D6018C933C
S1130C006701E2CF6417750739F4963320F49533FE
S1130C1019F4311101C081E3F6018083F701822FB9
S1130C2090E2882319F091938150FBCFF701E20FF2
S1130C30F11D108280E090E02996ECE00C941A07F4
S1130C40283008F027E03327DA01990F311D87FD9A
S1130C50916000966105710539F432602E5F3D9311
S1130C6030E32A95E1F708959F3F30F0803871050D
S1130C70610509F03C5F3C5F3D93913008F080686A
S1130C80911DDF93CF931F930F93FF92EF92192F30
S1130C90987F9695E92F96959695E90FFF27EE5341
S1130CA0FF4F99273327EE24FF24A701E70105907E
S1130CB00894079428F4360FE71EF81E491F511DA7
S1130CC0660F771F881F991F0694A1F70590079454
S1130CD028F4E70EF81E491F561FC11D770F881F01
S1130CE0991F661F0694A1F70590079428F4F80E3F
S1130CF0491F561FC71FD11D880F991F661F771FD5
S1130D000694A1F70590079420F4490F561FC71FB6
S1130D10D81F990F661F771F881F0694A9F784911F
S1130D201095177041F0D695C79557954795F79448
S1130D30E7941A95C1F7E8E6F0E0689415901591E8
S1130D4035916591959105907FE27395E118F10ACB
S1130D50430B560BC90BD009C0F7E10CF11E431F1E
S1130D60561FC91FD01D7EF4703311F48A95E6CF47
S1130D70E894015030F0080F0AF40027021708F431
S1130D80202F2395022F7A3328F079E37D932A9537
S1130D90E9F710C07D932A9589F60694979567958F
S1130DA0379517951794E118F10A430B560BC90BA5
S1130DB0D00998F023957E9173957A3308F070E307
S1130DC07C932013B8F77E9170617D9330F0839506
S1130DD071E37D9370E32A95E1F71124EF90FF907E
S1130DE00F911F91CF91DF91992787FD90950895D9
S1130DF02F923F924F925F926F927F928F929F9227
S1130E00AF92BF92CF92DF92EF92FF920F931F9314
S1130E10CF93DF93CDB7DEB7CA1BDB0B0FB6F894C5
S1130E20DEBF0FBECDBF09942A88398848885F8405
S1130E306E847D848C849B84AA84B984C884DF8076
S1130E40EE80FD800C811B81AA81B981CE0FD11D5A
S1130E500FB6F894DEBF0FBECDBFED010895F89430
S1050E60FFCFBE
S1130E6254656D70657261747572653A2000430051
S1070E72430D0A001E
S9030000FC
