S01800004C4D33355F74656D705F73656E736F722E73726563FD
S11300000C9434000C9449000C9449000C9449005D
S11300100C9449000C9449000C9449000C94490038
S11300200C9449000C9449000C9449000C94490028
S11300300C9449000C9449000C9449000C94490018
S11300400C9449000C9449000C9449000C94490008
S11300500C9449000C9449000C9449000C944900F8
S11300600C9449000C94490011241FBECFEFD8E032
S1130070DEBFCDBF11E0A0E0B1E0E8EFF7E002C0E1
S113008005900D92A031B107D9F70E94D5010C94C7
S1130090FA030C940000ECE7F0E080818078808320
S11300A0808180648083EAE7F0E0808180688083D7
S11300B0808187608083089587709927ECE7F0E05A
S11300C09081907F892B8083EAE7F0E080818064CF
S11300D0808380917A0086FDFCCF80917800909196
S11300E07900089585B1886085B985E08A95F1F72E
S11300F0000085B1877F85B987EC90E00197F1F71F
S113010000C0000008959BB1937C9BB983FF03C09A
S11301109BB194609BB982FF03C09BB198609BB96B
S113012081FF03C09BB190619BB980FF03C08BB179
S113013080628BB90E9472000895CF93C82F6130FA
S113014021F485B1806185B903C085B18F7E85B9FD
S11301508C2F82958F700E9483008C2F8F700E9449
S11301608300CF910895CF93C82F60E00E949D0033
S1130170C150C23030F48FE39FE10197F1F700C022
S11301800000CF91089561E00E949D0008958823A6
S113019011F090E401C090E0862F8F70890F806881
S11301A00E94B3000895CF93DF93EC0103C021961E
S11301B00E94C30088818111FACFDF91CF91089505
S11301C081E00E94B300089584B1806184B984B150
S11301D0886084B98AB18C638AB92FEF89EF90E083
S11301E0215080409040E1F700C0000085B18F7E2F
S11301F085B985B1877F85B983E00E9483008FE14B
S11302009EE40197F1F700C0000083E00E948300A0
S113021087E592E00197F1F700C0000083E00E94B7
S1130220830087E592E00197F1F700C0000082E0C7
S11302300E94830087E592E00197F1F700C0000077
S113024088E20E94B30088E00E94B30081E00E942B
S1130250B30086E00E94B3008CE00E94B3000895CE
S1130260CF93DF93EC018A30910568F09C01ADECEB
S1130270BCEC0E94EB039695879596958795969589
S113028087950E9430019E01ADECBCEC0E94EB030B
S11302909695879596958795969587959C01220FB7
S11302A0331F880F991F880F991F880F991F820F7A
S11302B0931F9E01281B390BC901805D0E94C30056
S11302C0DF91CF9108958F929F92AF92BF92CF9278
S11302D0DF92EF92FF924B015C0120E030E0A90134
S11302E00E94980288233CF48DE20E94C300B7FA6E
S11302F0B094B7F8B094C501B4010E949D026B019B
S11303007C01CB010E9430018EE20E94C300B60141
S113031080E090E00E94CC029B01AC01C501B401D5
S11303200E942B0220E030E048EC52E40E947E035D
S113033020E030E040E05FE30E942C020E949D0236
S11303406B017C018AE0C816D10418F480E30E9492
S1130350C300C6010E943001FF90EF90DF90CF9060
S1130360BF90AF909F908F9008951092C50087E63C
S11303708093C400E1ECF0E0808188618083808117
S11303808B7F8083E2ECF0E08081866080838081D3
S11303908F7C80838081877F808308959091C000C3
S11303A095FFFCCF8093C600089584B1816084B921
S11303B00E944B000E94E4000E94B50180E090E09E
S11303C00E945C00BC0180E090E00E94CC0223E229
S11303D03BED49EF5EE30E947E036B017C010E94CA
S11303E0E00060E080E00E94C70080E091E00E94AD
S11303F0D30060E081E00E94C700C701B6010E94FB
S113040063018FED0E94C3008EE091E00E94D3004F
S11304102FEF89E698E1215080409040E1F700C039
S113042000008AE00E94CE012FEF89E698E1215076
S113043080409040E1F700C0000095B181E0892739
S113044085B92FEF89E698E1215080409040E1F78B
S113045000C00000B3CF5058BB27AA270E94430214
S11304600C9444030E94360338F00E943D0320F0AC
S113047039F49F3F19F426F40C9433030EF4E095F9
S1130480E7FB0C942D03E92F0E94550358F3BA1788
S1130490620773078407950720F079F4A6F50C9496
S11304A077030EF4E0950B2EBA2FA02D0B01B901A2
S11304B090010C01CA01A0011124FF27591B99F0D6
S11304C0593F50F4503E68F11A16F040A22F232FE2
S11304D0342F4427585FF3CF469537952795A79532
S11304E0F0405395C9F77EF41F16BA0B620B730BD9
S11304F0840BBAF09150A1F0FF0FBB1F661F771F4A
S1130500881FC2F70EC0BA0F621F731F841F48F4FE
S1130510879577956795B795F7959E3F08F0B0CF87
S11305209395880F08F09927EE0F9795879508956E
S11305300E94090308F481E008950E945D0388F095
S11305409F5798F0B92F9927B751B0F0E1F0660F93
S1130550771F881F991F1AF0BA95C9F714C0B130D4
S113056091F00E947703B1E008950C947703672F0C
S1130570782F8827B85F39F0B93FCCF38695779503
S11305806795B395D9F73EF49095809570956195EC
S11305907F4F8F4F9F4F0895E89409C097FB3EF417
S11305A090958095709561957F4F8F4F9F4F9923BC
S11305B0A9F0F92F96E9BB279395F695879577953A
S11305C06795B795F111F8CFFAF4BB0F11F460FFFA
S11305D01BC06F5F7F4F8F4F9F4F16C0882311F052
S11305E096E911C0772321F09EE8872F762F05C066
S11305F0662371F096E8862F70E060E02AF09A9501
S1130600660F771F881FDAF7880F9695879597F9F5
S11306100895990F0008550FAA0BE0E8FEEF16168F
S11306201706E807F907C0F012161306E407F507E2
S113063098F0621B730B840B950B39F40A2661F056
S1130640232B242B252B21F408950A2609F4A140F9
S1130650A6958FEF811D811D089597F99F6780E806
S113066070E060E008959FEF80EC089500240A9400
S11306701616170618060906089500240A94121679
S11306801306140605060895092E0394000C11F4AC
S1130690882352F0BB0F40F4BF2B11F460FF04C059
S11306A06F5F7F4F8F4F9F4F089557FD9058440FB2
S11306B0551F59F05F3F71F04795880F97FB991FBD
S11306C061F09F3F79F0879508951216130614067A
S11306D0551FF2CF4695F1DF08C016161706180607
S11306E0991FF1CF86957105610508940895E894E2
S11306F0BB2766277727CB0197F908950E949103BA
S11307000C9444030E94360338F00E943D0320F009
S1130710952311F00C942D030C94330311240C94A1
S113072078030E94550370F3959FC1F3950F50E031
S1130730551F629FF001729FBB27F00DB11D639F8F
S1130740AA27F00DB11DAA1F649F6627B00DA11D35
S1130750661F829F2227B00DA11D621F739FB00DDB
S1130760A11D621F839FA00D611D221F749F33274B
S1130770A00D611D231F849F600D211D822F762FE4
S11307806A2F11249F5750409AF0F1F088234AF0C1
S1130790EE0FFF1FBB1F661F771F881F915050402D
S11307A0A9F79E3F510580F00C942D030C94780317
S11307B05F3FE4F3983ED4F3869577956795B795B4
S11307C0F795E7959F5FC1F7FE2B880F911D9695CE
S11307D0879597F90895A29FB001B39FC001A39F85
S11307E0700D811D1124911DB29F700D811D112466
S10B07F0911D0895F894FFCF58
S11307F854656D70657261747572653A20004300C2
S9030000FC
